{
  "contractName": "ThesisProject",
  "abi": [
    {
      "constant": true,
      "inputs": [],
      "name": "fCount",
      "outputs": [
        {
          "name": "",
          "type": "uint256"
        }
      ],
      "payable": false,
      "stateMutability": "view",
      "type": "function",
      "signature": "0x05f01b8e"
    },
    {
      "inputs": [],
      "payable": false,
      "stateMutability": "nonpayable",
      "type": "constructor",
      "signature": "constructor"
    },
    {
      "constant": true,
      "inputs": [
        {
          "name": "_tag",
          "type": "string"
        }
      ],
      "name": "fetchHash",
      "outputs": [
        {
          "name": "",
          "type": "string"
        }
      ],
      "payable": false,
      "stateMutability": "view",
      "type": "function",
      "signature": "0x046a84ef"
    },
    {
      "constant": false,
      "inputs": [
        {
          "name": "_tag",
          "type": "string"
        },
        {
          "name": "_hash",
          "type": "string"
        }
      ],
      "name": "addChunk",
      "outputs": [],
      "payable": false,
      "stateMutability": "nonpayable",
      "type": "function",
      "signature": "0xdd5b5fae"
    }
  ],
  "bytecode": "0x60806040526000805534801561001457600080fd5b506100986040805190810160405280600181526020017f31000000000000000000000000000000000000000000000000000000000000008152506040805190810160405280600481526020017f313331330000000000000000000000000000000000000000000000000000000081525061009d640100000000026401000000009004565b6101ef565b6100b082826401000000006100b4810204565b5050565b604080518082019091528281526020808201839052600180548082018083556000929092528351805192949360029092027fb10e2d527612073b26eecdfd717e6a320cf44b4afac2b0732d9fcbe2b7fa0cf601926101159284920190610154565b50602082810151805161012e9260018501920190610154565b505050506100b0610149640100000000026401000000009004565b600080546001019055565b828054600181600116156101000203166002900490600052602060002090601f016020900481019282601f1061019557805160ff19168380011785556101c2565b828001600101855582156101c2579182015b828111156101c25782518255916020019190600101906101a7565b506101ce9291506101d2565b5090565b6101ec91905b808211156101ce57600081556001016101d8565b90565b6105f5806101fe6000396000f3fe6080604052600436106100565763ffffffff7c0100000000000000000000000000000000000000000000000000000000600035041663046a84ef811461005b57806305f01b8e14610183578063dd5b5fae146101aa575b600080fd5b34801561006757600080fd5b5061010e6004803603602081101561007e57600080fd5b81019060208101813564010000000081111561009957600080fd5b8201836020820111156100ab57600080fd5b803590602001918460018302840111640100000000831117156100cd57600080fd5b91908080601f0160208091040260200160405190810160405280939291908181526020018383808284376000920191909152509295506102e6945050505050565b6040805160208082528351818301528351919283929083019185019080838360005b83811015610148578181015183820152602001610130565b50505050905090810190601f1680156101755780820380516001836020036101000a031916815260200191505b509250505060405180910390f35b34801561018f57600080fd5b50610198610478565b60408051918252519081900360200190f35b3480156101b657600080fd5b506102e4600480360360408110156101cd57600080fd5b8101906020810181356401000000008111156101e857600080fd5b8201836020820111156101fa57600080fd5b8035906020019184600183028401116401000000008311171561021c57600080fd5b91908080601f016020809104026020016040519081016040528093929190818152602001838380828437600092019190915250929594936020810193503591505064010000000081111561026f57600080fd5b82018360208201111561028157600080fd5b803590602001918460018302840111640100000000831117156102a357600080fd5b91908080601f01602080910402602001604051908101604052809392919081815260200183838082843760009201919091525092955061047e945050505050565b005b606060005b6000548111610471576103a460018281548110151561030657fe5b60009182526020918290206002918202018054604080516001831615610100026000190190921693909304601f8101859004850282018501909352828152929091908301828280156103995780601f1061036e57610100808354040283529160200191610399565b820191906000526020600020905b81548152906001019060200180831161037c57829003601f168201915b50505050508461048c565b156104695760018054829081106103b757fe5b90600052602060002090600202016001018054600181600116156101000203166002900480601f01602080910402602001604051908101604052809291908181526020018280546001816001161561010002031660029004801561045c5780601f106104315761010080835404028352916020019161045c565b820191906000526020600020905b81548152906001019060200180831161043f57829003601f168201915b5050505050915050610473565b6001016102eb565b505b919050565b60005481565b61048882826104a2565b5050565b8051602091820120825192909101919091201490565b604080518082019091528281526020808201839052600180548082018083556000929092528351805192949360029092027fb10e2d527612073b26eecdfd717e6a320cf44b4afac2b0732d9fcbe2b7fa0cf60192610503928492019061052e565b50602082810151805161051c926001850192019061052e565b50505050610488600080546001019055565b828054600181600116156101000203166002900490600052602060002090601f016020900481019282601f1061056f57805160ff191683800117855561059c565b8280016001018555821561059c579182015b8281111561059c578251825591602001919060010190610581565b506105a89291506105ac565b5090565b6105c691905b808211156105a857600081556001016105b2565b9056fea165627a7a72305820b53986239616d33bcf4edbf5e88d5c272f47b21fc52b200e0b8a948b0db871370029",
  "source": "pragma solidity >=0.4.22 <0.6.0;\ncontract ThesisProject {\n\n    uint public fCount = 0;\n\n    Chunk[] internal file;\n    struct Chunk {\n        string _tag;\n        string _hash;\n    }\n\n    constructor () public {\n      addChunk(\"1\",\"1313\");\n    }\n\n    function Counter() internal {\n        fCount += 1;\n    }\n\n    //function for comparing string: a subfunction of fetchHash(tag,hash)\n    function equalStringInternal(string memory a, string memory b) internal pure returns (bool) {\n        return keccak256(bytes(a)) == keccak256(bytes(b));\n    }\n\n    //function for adding tag,hash to the blockchain\n    function addChunkInternal(string memory _tag, string memory _hash) internal {\n      file.push(Chunk(_tag, _hash));\n                Counter();\n    }\n\n    //function for fetching the corresponding hash for integrity checking\n    function fetchHash(string memory _tag) public view returns(string memory) {\n        for(uint i=0; i<=fCount; i++)\n            if(equalStringInternal(file[i]._tag, _tag ))\n                return(file[i]._hash);\n     }\n\n     //PUBLIC addChunk\n    function addChunk(string memory _tag, string memory _hash) public {\n      addChunkInternal( _tag, _hash);\n    }\n\n\n}\n",
  "sourcePath": "C:/Users/Administrator/cloud_integrity_blockchain/contracts/ThesisProject.sol",
  "compiler": {
    "name": "solc",
    "version": "0.5.0+commit.1d4f565a.Emscripten.clang"
  },
  "schemaVersion": "3.0.1",
  "updatedAt": "2019-03-30T19:21:29.988Z",
  "devdoc": {
    "methods": {}
  },
  "userdoc": {
    "methods": {}
  }
}